{
  "contractName": "MyToken1",
  "abi": [
    {
      "inputs": [],
      "stateMutability": "nonpayable",
      "type": "constructor"
    },
    {
      "inputs": [
        {
          "internalType": "address",
          "name": "",
          "type": "address"
        }
      ],
      "name": "balances",
      "outputs": [
        {
          "internalType": "uint256",
          "name": "",
          "type": "uint256"
        }
      ],
      "stateMutability": "view",
      "type": "function",
      "constant": true
    },
    {
      "inputs": [],
      "name": "creator",
      "outputs": [
        {
          "internalType": "address",
          "name": "",
          "type": "address"
        }
      ],
      "stateMutability": "view",
      "type": "function",
      "constant": true
    },
    {
      "inputs": [],
      "name": "totalSupply",
      "outputs": [
        {
          "internalType": "uint256",
          "name": "",
          "type": "uint256"
        }
      ],
      "stateMutability": "view",
      "type": "function",
      "constant": true
    },
    {
      "inputs": [
        {
          "internalType": "address",
          "name": "owner",
          "type": "address"
        }
      ],
      "name": "balanceOf",
      "outputs": [
        {
          "internalType": "uint256",
          "name": "",
          "type": "uint256"
        }
      ],
      "stateMutability": "view",
      "type": "function",
      "constant": true
    },
    {
      "inputs": [
        {
          "internalType": "address",
          "name": "receiver",
          "type": "address"
        },
        {
          "internalType": "uint256",
          "name": "amount",
          "type": "uint256"
        }
      ],
      "name": "sendTokens",
      "outputs": [
        {
          "internalType": "bool",
          "name": "",
          "type": "bool"
        }
      ],
      "stateMutability": "nonpayable",
      "type": "function"
    },
    {
      "inputs": [],
      "name": "getSupply",
      "outputs": [
        {
          "internalType": "uint256",
          "name": "",
          "type": "uint256"
        }
      ],
      "stateMutability": "view",
      "type": "function",
      "constant": true
    }
  ],
  "bytecode": "0x608060405234801561001057600080fd5b50336000806101000a81548173ffffffffffffffffffffffffffffffffffffffff021916908373ffffffffffffffffffffffffffffffffffffffff160217905550612710600181905550600154600260008060009054906101000a900473ffffffffffffffffffffffffffffffffffffffff1673ffffffffffffffffffffffffffffffffffffffff1673ffffffffffffffffffffffffffffffffffffffff1681526020019081526020016000208190555061057b806100d06000396000f3fe608060405234801561001057600080fd5b50600436106100625760003560e01c806302d05d3f1461006757806305ab421d1461008557806318160ddd146100b557806327e235e3146100d35780636c9c2faf1461010357806370a0823114610121575b600080fd5b61006f610151565b60405161007c919061033d565b60405180910390f35b61009f600480360381019061009a91906103bf565b610175565b6040516100ac919061041a565b60405180910390f35b6100bd61028b565b6040516100ca9190610444565b60405180910390f35b6100ed60048036038101906100e8919061045f565b610291565b6040516100fa9190610444565b60405180910390f35b61010b6102a9565b6040516101189190610444565b60405180910390f35b61013b6004803603810190610136919061045f565b6102b3565b6040516101489190610444565b60405180910390f35b60008054906101000a900473ffffffffffffffffffffffffffffffffffffffff1681565b6000803390506000831161018857600080fd5b82600260008373ffffffffffffffffffffffffffffffffffffffff1673ffffffffffffffffffffffffffffffffffffffff1681526020019081526020016000205410156101d457600080fd5b82600260008373ffffffffffffffffffffffffffffffffffffffff1673ffffffffffffffffffffffffffffffffffffffff168152602001908152602001600020600082825461022391906104bb565b9250508190555082600260008673ffffffffffffffffffffffffffffffffffffffff1673ffffffffffffffffffffffffffffffffffffffff168152602001908152602001600020600082825461027991906104ef565b92505081905550600191505092915050565b60015481565b60026020528060005260406000206000915090505481565b6000600154905090565b6000600260008373ffffffffffffffffffffffffffffffffffffffff1673ffffffffffffffffffffffffffffffffffffffff168152602001908152602001600020549050919050565b600073ffffffffffffffffffffffffffffffffffffffff82169050919050565b6000610327826102fc565b9050919050565b6103378161031c565b82525050565b6000602082019050610352600083018461032e565b92915050565b600080fd5b6103668161031c565b811461037157600080fd5b50565b6000813590506103838161035d565b92915050565b6000819050919050565b61039c81610389565b81146103a757600080fd5b50565b6000813590506103b981610393565b92915050565b600080604083850312156103d6576103d5610358565b5b60006103e485828601610374565b92505060206103f5858286016103aa565b9150509250929050565b60008115159050919050565b610414816103ff565b82525050565b600060208201905061042f600083018461040b565b92915050565b61043e81610389565b82525050565b60006020820190506104596000830184610435565b92915050565b60006020828403121561047557610474610358565b5b600061048384828501610374565b91505092915050565b7f4e487b7100000000000000000000000000000000000000000000000000000000600052601160045260246000fd5b60006104c682610389565b91506104d183610389565b9250828210156104e4576104e361048c565b5b828203905092915050565b60006104fa82610389565b915061050583610389565b9250827fffffffffffffffffffffffffffffffffffffffffffffffffffffffffffffffff0382111561053a5761053961048c565b5b82820190509291505056fea2646970667358221220a441dc678f910b109ab6664297266631a8e58f4ce1aabc887c0e7b5ec2bf731d64736f6c634300080a0033",
  "immutableReferences": {},
  "source": "// SPDX-License-Identifier: MIT\npragma solidity >=0.4.22 <0.9.0;\n\ncontract MyToken1 {\n  address public creator;\n  uint256 public totalSupply;\n  mapping (address => uint256) public balances;\n\n  constructor() {\n    creator = msg.sender;\n    totalSupply = 10000;\n    balances[creator] = totalSupply;\n  }\n\n  function balanceOf(address owner) public view returns(uint256) {\n    //uint balance = balances[owner];\n    //return balance;\n    return balances[owner];\n  }\n\n  function sendTokens(address receiver, uint256 amount) public returns(bool){\n    address owner = msg.sender;\n    require(amount > 0);\n    require(balances[owner] >= amount);\n    balances[owner] -= amount;\n    balances[receiver] += amount;\n    return true;\n }\n\n function getSupply() public view returns(uint256) {\n   return totalSupply;\n }\n\n}\n",
  "sourcePath": "/Users/jacobkefalos/Documents/GitHub/SmartContract/solidity-experiments/contracts/MyToken1.sol",
  "compiler": {
    "name": "solc",
    "version": "0.8.10+commit.fc410830.Emscripten.clang"
  },
  "schemaVersion": "3.4.4",
  "updatedAt": "2022-01-10T19:21:08.029Z",
  "networkType": "ethereum",
  "devdoc": {
    "kind": "dev",
    "methods": {},
    "version": 1
  },
  "userdoc": {
    "kind": "user",
    "methods": {},
    "version": 1
  }
}