{
  "contractName": "ProofOfExistence1",
  "abi": [
    {
      "inputs": [
        {
          "internalType": "bytes32",
          "name": "proof",
          "type": "bytes32"
        }
      ],
      "name": "storeProof",
      "outputs": [],
      "stateMutability": "nonpayable",
      "type": "function"
    },
    {
      "inputs": [
        {
          "internalType": "string",
          "name": "document",
          "type": "string"
        }
      ],
      "name": "notarize",
      "outputs": [],
      "stateMutability": "nonpayable",
      "type": "function"
    },
    {
      "inputs": [
        {
          "internalType": "string",
          "name": "document",
          "type": "string"
        }
      ],
      "name": "proofFor",
      "outputs": [
        {
          "internalType": "bytes32",
          "name": "",
          "type": "bytes32"
        }
      ],
      "stateMutability": "pure",
      "type": "function",
      "constant": true
    },
    {
      "inputs": [
        {
          "internalType": "string",
          "name": "document",
          "type": "string"
        }
      ],
      "name": "checkDocument",
      "outputs": [
        {
          "internalType": "bool",
          "name": "",
          "type": "bool"
        }
      ],
      "stateMutability": "view",
      "type": "function",
      "constant": true
    },
    {
      "inputs": [
        {
          "internalType": "bytes32",
          "name": "proof",
          "type": "bytes32"
        }
      ],
      "name": "hasProof",
      "outputs": [
        {
          "internalType": "bool",
          "name": "",
          "type": "bool"
        }
      ],
      "stateMutability": "view",
      "type": "function",
      "constant": true
    }
  ],
  "bytecode": "0x608060405234801561001057600080fd5b506105fc806100206000396000f3fe608060405234801561001057600080fd5b50600436106100575760003560e01c806353fb92331461005c5780637183616c1461008c5780638952877b146100a8578063e3d1e6d6146100c4578063f6c1acdf146100f4575b600080fd5b610076600480360381019061007191906102da565b610124565b6040516100839190610342565b60405180910390f35b6100a660048036038101906100a191906102da565b610145565b005b6100c260048036038101906100bd9190610393565b610161565b005b6100de60048036038101906100d99190610393565b61018d565b6040516100eb9190610342565b60405180910390f35b61010e600480360381019061010991906102da565b6101f0565b60405161011b91906103cf565b60405180910390f35b60008061013184846101f0565b905061013c8161018d565b91505092915050565b600061015183836101f0565b905061015c81610161565b505050565b600081908060018154018082558091505060019003906000526020600020016000909190919091505550565b600080600090505b6000805490508110156101e55782600082815481106101b7576101b66103ea565b5b906000526020600020015414156101d25760019150506101eb565b80806101dd90610452565b915050610195565b50600090505b919050565b6000600283836040516020016102079291906104da565b604051602081830303815290604052604051610223919061056d565b602060405180830381855afa158015610240573d6000803e3d6000fd5b5050506040513d601f19601f820116820180604052508101906102639190610599565b905092915050565b600080fd5b600080fd5b600080fd5b600080fd5b600080fd5b60008083601f84011261029a57610299610275565b5b8235905067ffffffffffffffff8111156102b7576102b661027a565b5b6020830191508360018202830111156102d3576102d261027f565b5b9250929050565b600080602083850312156102f1576102f061026b565b5b600083013567ffffffffffffffff81111561030f5761030e610270565b5b61031b85828601610284565b92509250509250929050565b60008115159050919050565b61033c81610327565b82525050565b60006020820190506103576000830184610333565b92915050565b6000819050919050565b6103708161035d565b811461037b57600080fd5b50565b60008135905061038d81610367565b92915050565b6000602082840312156103a9576103a861026b565b5b60006103b78482850161037e565b91505092915050565b6103c98161035d565b82525050565b60006020820190506103e460008301846103c0565b92915050565b7f4e487b7100000000000000000000000000000000000000000000000000000000600052603260045260246000fd5b7f4e487b7100000000000000000000000000000000000000000000000000000000600052601160045260246000fd5b6000819050919050565b600061045d82610448565b91507fffffffffffffffffffffffffffffffffffffffffffffffffffffffffffffffff8214156104905761048f610419565b5b600182019050919050565b600081905092915050565b82818337600083830152505050565b60006104c1838561049b565b93506104ce8385846104a6565b82840190509392505050565b60006104e78284866104b5565b91508190509392505050565b600081519050919050565b600081905092915050565b60005b8381101561052757808201518184015260208101905061050c565b83811115610536576000848401525b50505050565b6000610547826104f3565b61055181856104fe565b9350610561818560208601610509565b80840191505092915050565b6000610579828461053c565b915081905092915050565b60008151905061059381610367565b92915050565b6000602082840312156105af576105ae61026b565b5b60006105bd84828501610584565b9150509291505056fea2646970667358221220397d6ce1318907c86c1201ffce4942df77a23faca699ec0306d56b96fa479ee264736f6c634300080a0033",
  "immutableReferences": {},
  "source": "// SPDX-License-Identifier: MIT\npragma solidity >=0.4.22 <0.9.0;\n\n// Proof of Existence contract, version 1\n\ncontract ProofOfExistence1 {\n\n  // state\n\n  bytes32[] private proofs;\n\n  // calculate and store the proof for a document\n  // *transactional function*\n  function storeProof(bytes32 proof) public{\n    proofs.push(proof);\n  }\n\n  function notarize(string calldata document) public {\n    bytes32 proof = proofFor(document);\n    storeProof(proof);\n  }\n\n  // helper function to get a document's sha256\n  // *read-only function*\n  function proofFor(string calldata document) public pure returns (bytes32) {\n    return sha256(abi.encodePacked(document));\n  }\n\n  function checkDocument(string calldata document) public view returns (bool) {\n    bytes32 proof = proofFor(document);\n    return hasProof(proof);\n  }\n\n  function hasProof(bytes32 proof) public view returns (bool) {\n    for (uint256 i = 0; i < proofs.length; i++) {\n      if (proofs[i] == proof) {\n        return true;\n      }\n    }\n    return false;\n  }\n}\n",
  "sourcePath": "/Users/jacobkefalos/Documents/GitHub/SmartContract/solidity-experiments/contracts/ProofOfExistence1.sol",
  "compiler": {
    "name": "solc",
    "version": "0.8.10+commit.fc410830.Emscripten.clang"
  },
  "schemaVersion": "3.4.4",
  "updatedAt": "2021-12-25T21:43:19.143Z",
  "networkType": "ethereum",
  "devdoc": {
    "kind": "dev",
    "methods": {},
    "version": 1
  },
  "userdoc": {
    "kind": "user",
    "methods": {},
    "version": 1
  }
}